{
  "_format": "hh-sol-artifact-1",
  "contractName": "RewardRouterV2",
  "sourceName": "contracts/staking/RewardRouterV2.sol",
  "abi": [
    {
      "anonymous": false,
      "inputs": [
        {
          "indexed": false,
          "internalType": "address",
          "name": "account",
          "type": "address"
        },
        {
          "indexed": false,
          "internalType": "address",
          "name": "token",
          "type": "address"
        },
        {
          "indexed": false,
          "internalType": "uint256",
          "name": "amount",
          "type": "uint256"
        }
      ],
      "name": "StakeJoy9",
      "type": "event"
    },
    {
      "anonymous": false,
      "inputs": [
        {
          "indexed": false,
          "internalType": "address",
          "name": "account",
          "type": "address"
        },
        {
          "indexed": false,
          "internalType": "address",
          "name": "token",
          "type": "address"
        },
        {
          "indexed": false,
          "internalType": "uint256",
          "name": "amount",
          "type": "uint256"
        }
      ],
      "name": "UnstakeJoy9",
      "type": "event"
    },
    {
      "inputs": [
        {
          "internalType": "address",
          "name": "_sender",
          "type": "address"
        }
      ],
      "name": "acceptTransfer",
      "outputs": [],
      "stateMutability": "nonpayable",
      "type": "function"
    },
    {
      "inputs": [
        {
          "internalType": "address[]",
          "name": "_accounts",
          "type": "address[]"
        }
      ],
      "name": "batchCompoundForAccounts",
      "outputs": [],
      "stateMutability": "nonpayable",
      "type": "function"
    },
    {
      "inputs": [
        {
          "internalType": "address[]",
          "name": "_accounts",
          "type": "address[]"
        },
        {
          "internalType": "uint256[]",
          "name": "_amounts",
          "type": "uint256[]"
        }
      ],
      "name": "batchStakeJoy9ForAccount",
      "outputs": [],
      "stateMutability": "nonpayable",
      "type": "function"
    },
    {
      "inputs": [],
      "name": "bnJoy9",
      "outputs": [
        {
          "internalType": "address",
          "name": "",
          "type": "address"
        }
      ],
      "stateMutability": "view",
      "type": "function"
    },
    {
      "inputs": [],
      "name": "bonusJoy9Tracker",
      "outputs": [
        {
          "internalType": "address",
          "name": "",
          "type": "address"
        }
      ],
      "stateMutability": "view",
      "type": "function"
    },
    {
      "inputs": [],
      "name": "claim",
      "outputs": [],
      "stateMutability": "nonpayable",
      "type": "function"
    },
    {
      "inputs": [],
      "name": "claimEsJoy9",
      "outputs": [],
      "stateMutability": "nonpayable",
      "type": "function"
    },
    {
      "inputs": [],
      "name": "claimFees",
      "outputs": [],
      "stateMutability": "nonpayable",
      "type": "function"
    },
    {
      "inputs": [],
      "name": "compound",
      "outputs": [],
      "stateMutability": "nonpayable",
      "type": "function"
    },
    {
      "inputs": [
        {
          "internalType": "address",
          "name": "_account",
          "type": "address"
        }
      ],
      "name": "compoundForAccount",
      "outputs": [],
      "stateMutability": "nonpayable",
      "type": "function"
    },
    {
      "inputs": [],
      "name": "esJoy9",
      "outputs": [
        {
          "internalType": "address",
          "name": "",
          "type": "address"
        }
      ],
      "stateMutability": "view",
      "type": "function"
    },
    {
      "inputs": [],
      "name": "feeJoy9Tracker",
      "outputs": [
        {
          "internalType": "address",
          "name": "",
          "type": "address"
        }
      ],
      "stateMutability": "view",
      "type": "function"
    },
    {
      "inputs": [],
      "name": "gov",
      "outputs": [
        {
          "internalType": "address",
          "name": "",
          "type": "address"
        }
      ],
      "stateMutability": "view",
      "type": "function"
    },
    {
      "inputs": [
        {
          "internalType": "bool",
          "name": "_shouldClaimJoy9",
          "type": "bool"
        },
        {
          "internalType": "bool",
          "name": "_shouldStakeJoy9",
          "type": "bool"
        },
        {
          "internalType": "bool",
          "name": "_shouldClaimEsJoy9",
          "type": "bool"
        },
        {
          "internalType": "bool",
          "name": "_shouldStakeEsJoy9",
          "type": "bool"
        },
        {
          "internalType": "bool",
          "name": "_shouldStakeMultiplierPoints",
          "type": "bool"
        },
        {
          "internalType": "bool",
          "name": "_shouldClaimWeth",
          "type": "bool"
        },
        {
          "internalType": "bool",
          "name": "_shouldConvertWethToEth",
          "type": "bool"
        }
      ],
      "name": "handleRewards",
      "outputs": [],
      "stateMutability": "nonpayable",
      "type": "function"
    },
    {
      "inputs": [
        {
          "internalType": "address",
          "name": "_weth",
          "type": "address"
        },
        {
          "internalType": "address",
          "name": "_joy9",
          "type": "address"
        },
        {
          "internalType": "address",
          "name": "_esJoy9",
          "type": "address"
        },
        {
          "internalType": "address",
          "name": "_bnJoy9",
          "type": "address"
        },
        {
          "internalType": "address",
          "name": "_stakedJoy9Tracker",
          "type": "address"
        },
        {
          "internalType": "address",
          "name": "_bonusJoy9Tracker",
          "type": "address"
        },
        {
          "internalType": "address",
          "name": "_feeJoy9Tracker",
          "type": "address"
        },
        {
          "internalType": "address",
          "name": "_joy9Vester",
          "type": "address"
        }
      ],
      "name": "initialize",
      "outputs": [],
      "stateMutability": "nonpayable",
      "type": "function"
    },
    {
      "inputs": [],
      "name": "isInitialized",
      "outputs": [
        {
          "internalType": "bool",
          "name": "",
          "type": "bool"
        }
      ],
      "stateMutability": "view",
      "type": "function"
    },
    {
      "inputs": [],
      "name": "joy9",
      "outputs": [
        {
          "internalType": "address",
          "name": "",
          "type": "address"
        }
      ],
      "stateMutability": "view",
      "type": "function"
    },
    {
      "inputs": [],
      "name": "joy9Vester",
      "outputs": [
        {
          "internalType": "address",
          "name": "",
          "type": "address"
        }
      ],
      "stateMutability": "view",
      "type": "function"
    },
    {
      "inputs": [
        {
          "internalType": "address",
          "name": "",
          "type": "address"
        }
      ],
      "name": "pendingReceivers",
      "outputs": [
        {
          "internalType": "address",
          "name": "",
          "type": "address"
        }
      ],
      "stateMutability": "view",
      "type": "function"
    },
    {
      "inputs": [
        {
          "internalType": "address",
          "name": "_gov",
          "type": "address"
        }
      ],
      "name": "setGov",
      "outputs": [],
      "stateMutability": "nonpayable",
      "type": "function"
    },
    {
      "inputs": [
        {
          "internalType": "address",
          "name": "_receiver",
          "type": "address"
        }
      ],
      "name": "signalTransfer",
      "outputs": [],
      "stateMutability": "nonpayable",
      "type": "function"
    },
    {
      "inputs": [
        {
          "internalType": "uint256",
          "name": "_amount",
          "type": "uint256"
        }
      ],
      "name": "stakeEsJoy9",
      "outputs": [],
      "stateMutability": "nonpayable",
      "type": "function"
    },
    {
      "inputs": [
        {
          "internalType": "uint256",
          "name": "_amount",
          "type": "uint256"
        }
      ],
      "name": "stakeJoy9",
      "outputs": [],
      "stateMutability": "nonpayable",
      "type": "function"
    },
    {
      "inputs": [
        {
          "internalType": "address",
          "name": "_account",
          "type": "address"
        },
        {
          "internalType": "uint256",
          "name": "_amount",
          "type": "uint256"
        }
      ],
      "name": "stakeJoy9ForAccount",
      "outputs": [],
      "stateMutability": "nonpayable",
      "type": "function"
    },
    {
      "inputs": [],
      "name": "stakedJoy9Tracker",
      "outputs": [
        {
          "internalType": "address",
          "name": "",
          "type": "address"
        }
      ],
      "stateMutability": "view",
      "type": "function"
    },
    {
      "inputs": [
        {
          "internalType": "uint256",
          "name": "_amount",
          "type": "uint256"
        }
      ],
      "name": "unstakeEsJoy9",
      "outputs": [],
      "stateMutability": "nonpayable",
      "type": "function"
    },
    {
      "inputs": [
        {
          "internalType": "uint256",
          "name": "_amount",
          "type": "uint256"
        }
      ],
      "name": "unstakeJoy9",
      "outputs": [],
      "stateMutability": "nonpayable",
      "type": "function"
    },
    {
      "inputs": [],
      "name": "weth",
      "outputs": [
        {
          "internalType": "address",
          "name": "",
          "type": "address"
        }
      ],
      "stateMutability": "view",
      "type": "function"
    },
    {
      "inputs": [
        {
          "internalType": "address",
          "name": "_token",
          "type": "address"
        },
        {
          "internalType": "address",
          "name": "_account",
          "type": "address"
        },
        {
          "internalType": "uint256",
          "name": "_amount",
          "type": "uint256"
        }
      ],
      "name": "withdrawToken",
      "outputs": [],
      "stateMutability": "nonpayable",
      "type": "function"
    },
    {
      "stateMutability": "payable",
      "type": "receive"
    }
  ],
  "bytecode": "0x6080806040523461002d576001600081905580546001600160a01b031916331790556138e790816100338239f35b600080fdfe60806040526004361015610023575b361561001957600080fd5b610021611f70565b005b60003560e01c806301319ea61461026757806301e336671461025e5780630e91e3ad1461025557806312d43a511461024c57806315a05335146102435780631af276a61461023a578063216a4e1c146102315780632a9f40831461022857806330b700021461021f5780633421d9fb14610216578063392e53cd1461020d5780633e02ef16146102045780633fc8cef3146101fb5780634e71d92d146101f2578063525aea27146101e957806353f99ac4146101e057806358e59539146101d7578063655603a4146101ce57806371cd5f88146101c55780637ce09f9c146101bc5780638a29e2de146101b3578063baa1104b146101aa578063c6a7cbf9146101a1578063cfad57a214610198578063d294f0931461018f578063dc644ab514610186578063e1b9db891461017d578063ef9aacfd146101745763f69e20460361000e5761016f611d62565b61000e565b5061016f611c86565b5061016f611c4a565b5061016f611c20565b5061016f611bc3565b5061016f611b7b565b5061016f611b51565b5061016f611b11565b5061016f61192b565b5061016f6118eb565b5061016f6118c1565b5061016f611306565b5061016f611262565b5061016f611221565b5061016f6111f7565b5061016f6110dd565b5061016f6110b3565b5061016f611074565b5061016f61104d565b5061016f611023565b5061016f610b56565b5061016f61094f565b5061016f610925565b5061016f61069f565b5061016f610533565b5061016f610509565b5061016f610452565b5061016f61035a565b5061016f610280565b600091031261027b57565b600080fd5b503461027b57600036600319011261027b576009546040516001600160a01b039091168152602090f35b600435906001600160a01b038216820361027b57565b602435906001600160a01b038216820361027b57565b604435906001600160a01b038216820361027b57565b606435906001600160a01b038216820361027b57565b608435906001600160a01b038216820361027b57565b60a435906001600160a01b038216820361027b57565b60c435906001600160a01b038216820361027b57565b60e435906001600160a01b038216820361027b57565b503461027b57606036600319011261027b5761042f6103776102aa565b6000806103826102c0565b60015490936001600160a01b039161039d9083163314611f2c565b60405163a9059cbb60e01b602082019081526001600160a01b0396909616602482015260448035818301528152949116906103d96064866105e8565b82604051956103e7876105cc565b602087527f5361666545524332303a206c6f772d6c6576656c2063616c6c206661696c6564602088015261041d843b1515612039565b51925af1610429612085565b9061211c565b80518061043857005b8160208061044d936100219501019101611fc2565b611fda565b503461027b5760008060031936011261050657610473600282541415612158565b600281556006546040516309f4173d60e11b8152336004820181905260248201529060209082906001600160a01b0316818581604481015b03925af180156104f9575b6104cb575b506104c66001600055565b604051f35b6104eb9060203d81116104f2575b6104e381836105e8565b81019061228a565b50386104bb565b503d6104d9565b610501612299565b6104b6565b80fd5b503461027b57600036600319011261027b576001546040516001600160a01b039091168152602090f35b503461027b57604036600319011261027b5761058d6105506102aa565b61055f60026000541415612158565b60026000556001546001600160a01b03919061057e9083163314611f2c565b60243591600354169033612eb9565b6001600055005b50634e487b7160e01b600052604160045260246000fd5b67ffffffffffffffff81116105bf57604052565b6105c7610594565b604052565b6040810190811067ffffffffffffffff8211176105bf57604052565b90601f8019910116810190811067ffffffffffffffff8211176105bf57604052565b60209067ffffffffffffffff8111610624575b60051b0190565b61062c610594565b61061d565b81601f8201121561027b578035916106488361060a565b9261065660405194856105e8565b808452602092838086019260051b82010192831161027b578301905b828210610680575050505090565b81356001600160a01b038116810361027b578152908301908301610672565b503461027b5760208060031936011261027b576004803567ffffffffffffffff811161027b576106d29036908301610631565b6000926106e3600285541415612158565b6002845560018060a01b036001926106ff828554163314611f2c565b85845b610712575b866104c66001600055565b815181101561092057826107268284612260565b516006549116919061074e90610742906001600160a01b031681565b6001600160a01b031690565b91888187816040968c885184816309f4173d60e11b94858252818a816107908a808a840190602090939293604083019460018060a01b03809216845216910152565b03925af1908115610913575b87916108f6575b50806108d8575b5060075486906107c490610742906001600160a01b031681565b8a519384526001600160a01b0394851692840192835297909316602082015290958692918390036040019183915af19283156108cb575b82936108ac575b508261081c575b5050506108169150612244565b84610702565b60085461083390610742906001600160a01b031681565b6005546001600160a01b031693813b156108a857838c61086b85936108169a5198899788968795631e42d69b60e21b875286016122a6565b03925af1801561089b575b610882575b8881610809565b8061088f610895926105ab565b80610270565b3861087b565b6108a3612299565b610876565b8380fd5b6108c4919350883d8a116104f2576104e381836105e8565b9138610802565b6108d3612299565b6107fb565b90546108ef91906001600160a01b03168480612eb9565b8c386107aa565b61090d9150853d87116104f2576104e381836105e8565b386107a3565b61091b612299565b61079c565b610707565b503461027b57600036600319011261027b576006546040516001600160a01b039091168152602090f35b503461027b5760208060031936011261027b5761096a6102aa565b6000809261097c600283541415612158565b6002825561099560018060a01b03600154163314611f2c565b6006546109ac90610742906001600160a01b031681565b6040516309f4173d60e11b8082526001600160a01b0386166004830181905260248301529183908290604490829088905af1908115610b3f575b8491610b22575b5080610b04575b506007548290610a0e90610742906001600160a01b031681565b6040519283526001600160a01b0386166004840181905260248401528290604490829087905af1918215610af7575b8392610ada575b505080610a5657506104c66001600055565b600854610a6d90610742906001600160a01b031681565b6005546001600160a01b0316813b156108a85783610aa39560405196879586948593631e42d69b60e21b855280600486016122a6565b03925af18015610acd575b610aba575b81816104bb565b8061088f610ac7926105ab565b38610ab3565b610ad5612299565b610aae565b610af09250803d106104f2576104e381836105e8565b3880610a44565b610aff612299565b610a3d565b600454610b1c91906001600160a01b03168680612eb9565b386109f4565b610b399150833d85116104f2576104e381836105e8565b386109ed565b610b47612299565b6109e6565b8015150361027b57565b503461027b5760e036600319011261027b576004803590610b7682610b4c565b602435610b8281610b4c565b604435610b8e81610b4c565b60643590610b9b82610b4c565b608435610ba781610b4c565b60a43591610bb483610b4c565b60c43593610bc185610b4c565b6000978896610bd4600289541415612158565b600288558791610f94575b80610f8b575b610f6f575b508591610ee5575b80610edc575b610ebe575b50610da8575b610c1257506104c66001600055565b15610d1c5750600854610c2f90610742906001600160a01b031681565b604080516309f4173d60e11b81523384820190815230602082810191909152919391928492918391889183910103925af1908115610d0f575b8391610cf1575b50600254610c8790610742906001600160a01b031681565b83813b1561050657604051632e1a7d4d60e01b8152938401838152610cc99492839182908490829060200103925af18015610ce4575b610cd1575b50336122d1565b3881816104bb565b8061088f610cde926105ab565b38610cc2565b610cec612299565b610cbd565b610d09915060203d81116104f2576104e381836105e8565b38610c6f565b610d17612299565b610c68565b90610d67602091610d3a61074261074260085460018060a01b031690565b604080516309f4173d60e11b81523393810184815260208101949094529586949293859391928492910190565b03925af18015610d9b575b610d7d575b50610cc9565b610d949060203d81116104f2576104e381836105e8565b5038610d77565b610da3612299565b610d72565b600754610dbf90610742906001600160a01b031681565b604080516309f4173d60e11b8152338782018181526020818101929092529193909284928391899183910103925af1908115610eb1575b8491610e93575b5080610e0a575b50610c03565b600854610e2190610742906001600160a01b031681565b6005549091906001600160a01b031690823b15610e8f57604051631e42d69b60e21b81529286928492839185918391610e5f919033808f86016122a6565b03925af18015610e82575b15610e04578061088f610e7c926105ab565b38610e04565b610e8a612299565b610e6a565b8580fd5b610eab915060203d81116104f2576104e381836105e8565b38610dfd565b610eb9612299565b610df6565b8554610ed691906001600160a01b03165b3333612eb9565b38610bfd565b50801515610bf8565b600654909150610eff90610742906001600160a01b031681565b604080516309f4173d60e11b81523389820181815260208181019290925291939092849283918b9183910103925af1908115610f62575b8691610f44575b5090610bf2565b610f5c915060203d81116104f2576104e381836105e8565b38610f3d565b610f6a612299565b610f36565b600354610f8591906001600160a01b0316610ecf565b38610bea565b50801515610be5565b9050866020610fde610fb361074261074260095460018060a01b031690565b604080516309f4173d60e11b815233818f018181526020810191909152909586948593919284920190565b03925af1908115611016575b8891610ff8575b5090610bdf565b611010915060203d81116104f2576104e381836105e8565b38610ff1565b61101e612299565b610fea565b503461027b57600036600319011261027b576005546040516001600160a01b039091168152602090f35b503461027b57600036600319011261027b57602060ff60015460a01c166040519015158152f35b503461027b57602036600319011261027b5761109560026000541415612158565b60026000556004805461058d9135906001600160a01b031633613098565b503461027b57600036600319011261027b576002546040516001600160a01b039091168152602090f35b503461027b57600080600319360112610506576110fe600282541415612158565b6002815560085461111990610742906001600160a01b031681565b6040516309f4173d60e11b8082523360048301819052602483015260209290919083908290604490829088905af180156111ea575b6111cd575b50600654829061116d90610742906001600160a01b031681565b604051928352336004840181905260248401528290604490829087905af180156111c0575b6111a2575b826104c66001600055565b816111b892903d106104f2576104e381836105e8565b503880611197565b6111c8612299565b611192565b6111e390833d85116104f2576104e381836105e8565b5038611153565b6111f2612299565b61114e565b503461027b57600036600319011261027b576003546040516001600160a01b039091168152602090f35b503461027b57602036600319011261027b5761124260026000541415612158565b600260005560035461058d90600435906001600160a01b03163380612eb9565b503461027b57604036600319011261027b5767ffffffffffffffff60043581811161027b57611295903690600401610631565b9060243590811161027b573660238201121561027b5780600401356112b98161060a565b916112c760405193846105e8565b81835260209160248385019160051b8301019136831161027b57602401905b8282106112f75761002185876121a4565b813581529083019083016112e6565b503461027b5760208060031936011261027b576113216102aa565b90600091611333600284541415612158565b60028355600954839061135090610742906001600160a01b031681565b604080516370a0823160e01b8082526001600160a01b03861660048084019190915292969293859261139d918590829060249082905afa9081156118b4575b8491611897575b50156123af565b6001600160a01b038681166000908152600a60205260409020546113c39116331461240a565b6001600160a01b0386166000908152600a6020526040902080546001600160a01b03191690556113f233612850565b6113fb86612cb1565b600654849061141490610742906001600160a01b031681565b60035461145c9086906001600160a01b03168b51637aeceb1f60e11b8082526001600160a01b03808e1697830197885283166020880152959194909384928391829160400190565b03915afa90811561188a575b859161186d575b5080611847575b5050846114c6858a61149561074261074260065460018060a01b031690565b845491518681526001600160a01b03808e169682019687529092166020860181905294919384928391829160400190565b03915afa90811561183a575b859161181d575b50806117f5575b50506008546114f990610742906001600160a01b031681565b60055489519283526001600160a01b0389811688850190815291166020820181905291908690849081900360400181845afa9283156117e8575b85936117c9575b50826116db575b5050845461155a9150610742906001600160a01b031681565b87519182526001600160a01b0387168583019081529091908490829081906020010381855afa9081156116ce575b83916116b1575b5080611628575b50506009546115b1925061074291506001600160a01b031681565b803b15611624578451630f713c2360e41b81526001600160a01b03909416918401918252336020830152839182908490829060400103925af18015611617575b611604575b506116016001600055565b51f35b8061088f611611926105ab565b386115f6565b61161f612299565b6115f1565b8280fd5b87516323b872dd60e01b81526001600160a01b038816868201908152336020820152604081019290925292849284928390036060019183915af180156116a4575b611676575b808491611596565b8161169592903d1061169d575b61168d81836105e8565b810190611fc2565b50388061166e565b503d611683565b6116ac612299565b611669565b6116c89150843d86116104f2576104e381836105e8565b3861158f565b6116d6612299565b611588565b80919294503b156117a5578391879189838961170b838f519889978896879563098bf59d60e01b87528601612462565b03925af180156117bc575b6117a9575b5060085461173390610742906001600160a01b031681565b6005546001600160a01b03169290803b156117a5578693849187838b61176e8e5197889687958694631e42d69b60e21b8652339186016122a6565b03925af18015611798575b611785575b8080611541565b8061088f611792926105ab565b3861177e565b6117a0612299565b611779565b8680fd5b8061088f6117b6926105ab565b3861171b565b6117c4612299565b611716565b6117e1919350863d88116104f2576104e381836105e8565b913861153a565b6117f0612299565b611533565b61180381611816938b6135b3565b86546001600160a01b03165b338a612eb9565b38806114e0565b6118349150863d88116104f2576104e381836105e8565b386114d9565b611842612299565b6114d2565b61185581611866938b6135b3565b6003546001600160a01b031661180f565b3880611476565b6118849150863d88116104f2576104e381836105e8565b3861146f565b611892612299565b611468565b6118ae9150853d87116104f2576104e381836105e8565b38611396565b6118bc612299565b61138f565b503461027b57600036600319011261027b576004546040516001600160a01b039091168152602090f35b503461027b57602036600319011261027b5761190c60026000541415612158565b600260005560035461058d90600435906001600160a01b031633613098565b503461027b5761010036600319011261027b576119466102aa565b61194e6102c0565b6119566102d6565b61195e6102ec565b90611967610302565b92611970610318565b61197861032e565b92611981610344565b60015490969060ff9061199e336001600160a01b03831614611f2c565b60a01c16611ac257611a4e611aa596611a31611a6b94611a14611a88986119f76100219e6119da600160a01b60ff60a01b196001541617600155565b60018060a01b03166001600160601b0360a01b6002541617600255565b60018060a01b03166001600160601b0360a01b6003541617600355565b60018060a01b03166001600160601b0360a01b6004541617600455565b60018060a01b03166001600160601b0360a01b6005541617600555565b60018060a01b03166001600160601b0360a01b6006541617600655565b60018060a01b03166001600160601b0360a01b6007541617600755565b60018060a01b03166001600160601b0360a01b6008541617600855565b60018060a01b03166001600160601b0360a01b6009541617600955565b60405162461bcd60e51b815260206004820152602160248201527f526577617264526f757465723a20616c726561647920696e697469616c697a656044820152601960fa1b6064820152608490fd5b503461027b57602036600319011261027b57611b3260026000541415612158565b60026000556004805461058d9135906001600160a01b03163380612eb9565b503461027b57600036600319011261027b576007546040516001600160a01b039091168152602090f35b503461027b57602036600319011261027b57611b956102aa565b600154906001600160a01b0390611baf3383851614611f2c565b6001600160a01b0319909216911617600155005b503461027b5760008060031936011261050657611be4600282541415612158565b600281556008546040516309f4173d60e11b8152336004820181905260248201529060209082906001600160a01b0316818581604481016104ab565b503461027b57600036600319011261027b576008546040516001600160a01b039091168152602090f35b503461027b57602036600319011261027b5760206001600160a01b0380611c6f6102aa565b16600052600a825260406000205416604051908152f35b503461027b57602036600319011261027b57611d33611ca36102aa565b611cb260026000541415612158565b60026000556009546040516370a0823160e01b8152336004820152611cfc91602090829060249082906001600160a01b03165afa908115611d55575b600091611d3d5750156123af565b611d0581612850565b336000908152600a6020526040902080546001600160a01b0319166001600160a01b03909216919091179055565b6100216001600055565b6118ae915060203d81116104f2576104e381836105e8565b611d5d612299565b611cee565b503461027b5760008060031936011261050657611d83600282541415612158565b60028155600654611d9e90610742906001600160a01b031681565b6040516309f4173d60e11b8082523360048301819052602483015260209290919083908290604490829088905af1908115611f1f575b8491611f02575b5080611ee6575b506007548290611dfc90610742906001600160a01b031681565b604051928352336004840181905260248401528290604490829087905af1918215611ed9575b8392611ebc575b505080611e3b57506104c66001600055565b6008548290611e5490610742906001600160a01b031681565b6005546001600160a01b03169290803b1561162457611e8c9383604051809681958294631e42d69b60e21b84523333600486016122a6565b03925af18015611eaf575b156104bb578061088f611ea9926105ab565b386104bb565b611eb7612299565b611e97565b611ed29250803d106104f2576104e381836105e8565b3880611e29565b611ee1612299565b611e22565b600454611efc91906001600160a01b0316610ecf565b38611de2565b611f199150833d85116104f2576104e381836105e8565b38611ddb565b611f27612299565b611dd4565b15611f3357565b60405162461bcd60e51b815260206004820152601560248201527423b7bb32b93730b136329d103337b93134b23232b760591b6044820152606490fd5b6002546001600160a01b03163303611f8457565b60405162461bcd60e51b81526020600482015260166024820152752937baba32b91d1034b73b30b634b21039b2b73232b960511b6044820152606490fd5b9081602091031261027b5751611fd781610b4c565b90565b15611fe157565b60405162461bcd60e51b815260206004820152602a60248201527f5361666545524332303a204552433230206f7065726174696f6e20646964206e6044820152691bdd081cdd58d8d9595960b21b6064820152608490fd5b1561204057565b60405162461bcd60e51b815260206004820152601d60248201527f416464726573733a2063616c6c20746f206e6f6e2d636f6e74726163740000006044820152606490fd5b3d156120ce573d9067ffffffffffffffff82116120c1575b604051916120b5601f8201601f1916602001846105e8565b82523d6000602084013e565b6120c9610594565b61209d565b606090565b6020808252825181830181905290939260005b82811061210857505060409293506000838284010152601f8019910116010190565b8181018601518482016040015285016120e6565b90919015612128575090565b8151156121385750805190602001fd5b60405162461bcd60e51b815290819061215490600483016120d3565b0390fd5b1561215f57565b60405162461bcd60e51b815260206004820152601f60248201527f5265656e7472616e637947756172643a207265656e7472616e742063616c6c006044820152606490fd5b906121b460026000541415612158565b600260005560018060a01b03600192816121d385938454163314611f2c565b6003548116916000845b6121ed575b505050505050600055565b8151811015612228578061221d846122086122229486612260565b511686612215848b612260565b519133612eb9565b612244565b846121dd565b6121e2565b50634e487b7160e01b600052601160045260246000fd5b6001906000198114612254570190565b61225c61222d565b0190565b80518210156122745760209160051b010190565b634e487b7160e01b600052603260045260246000fd5b9081602091031261027b575190565b506040513d6000823e3d90fd5b6001600160a01b03918216815291811660208301529091166040820152606081019190915260800190565b81471061236a576040516000928392839291906001600160a01b03165af16122f7612085565b50156122ff57565b60405162461bcd60e51b815260206004820152603a60248201527f416464726573733a20756e61626c6520746f2073656e642076616c75652c207260448201527f6563697069656e74206d617920686176652072657665727465640000000000006064820152608490fd5b60405162461bcd60e51b815260206004820152601d60248201527f416464726573733a20696e73756666696369656e742062616c616e63650000006044820152606490fd5b156123b657565b60405162461bcd60e51b815260206004820152602660248201527f526577617264526f757465723a2073656e646572206861732076657374656420604482015265746f6b656e7360d01b6064820152608490fd5b1561241157565b60405162461bcd60e51b8152602060048201526024808201527f526577617264526f757465723a207472616e73666572206e6f74207369676e616044820152631b1b195960e21b6064820152608490fd5b6001600160a01b039182168152918116602083015260408201929092529116606082015260800190565b1561249357565b60405162461bcd60e51b815260206004820152603860248201527f526577617264526f757465723a207374616b65644a6f7939547261636b65722e60448201527f617665726167655374616b6564416d6f756e7473203e203000000000000000006064820152608490fd5b1561250557565b60405162461bcd60e51b815260206004820152603560248201527f526577617264526f757465723a207374616b65644a6f7939547261636b65722e604482015274063756d756c617469766552657761726473203e203605c1b6064820152608490fd5b1561256f57565b60405162461bcd60e51b815260206004820152603760248201527f526577617264526f757465723a20626f6e75734a6f7939547261636b65722e6160448201527f7665726167655374616b6564416d6f756e7473203e20300000000000000000006064820152608490fd5b156125e157565b60405162461bcd60e51b815260206004820152603460248201527f526577617264526f757465723a20626f6e75734a6f7939547261636b65722e636044820152730756d756c617469766552657761726473203e20360641b6064820152608490fd5b1561264a57565b60405162461bcd60e51b815260206004820152603560248201527f526577617264526f757465723a206665654a6f7939547261636b65722e6176656044820152740726167655374616b6564416d6f756e7473203e203605c1b6064820152608490fd5b156126b457565b60405162461bcd60e51b815260206004820152603260248201527f526577617264526f757465723a206665654a6f7939547261636b65722e63756d6044820152710756c617469766552657761726473203e20360741b6064820152608490fd5b1561271b57565b60405162461bcd60e51b815260206004820152603c60248201527f526577617264526f757465723a206a6f79395665737465722e7472616e73666560448201527f72726564417665726167655374616b6564416d6f756e7473203e2030000000006064820152608490fd5b1561278d57565b60405162461bcd60e51b815260206004820152603960248201527f526577617264526f757465723a206a6f79395665737465722e7472616e73666560448201527f7272656443756d756c617469766552657761726473203e2030000000000000006064820152608490fd5b156127ff57565b60405162461bcd60e51b8152602060048201526024808201527f526577617264526f757465723a206a6f79395665737465722e62616c616e63656044820152630203e20360e41b6064820152608490fd5b612b3590612b1961290e8261287261074261074260065460018060a01b031690565b6040805163a318021760e01b8082526001600160a01b038816600480840191909152602098899794959194612a49948993906128c7908581602481865afa908115612ca4575b600091612c87575b501561248c565b8751633792def360e01b8082526001600160a01b03909416888201908152909185918391908290819060200103915afa908115612c7a575b600091612c5d575b50156124fe565b6129b661299b83898961297782848c8b61295b61293861074261074260075460018060a01b031690565b96519182526001600160a01b039094169181019182529283918291602090910190565b0381865afa908115612c50575b600091612c33575b5015612568565b8a518681526001600160a01b039092168a8301908152919384928391829160200190565b03915afa908115612c26575b600091612c09575b50156125da565b600854612a0e906129d190610742906001600160a01b031681565b87519485526001600160a01b0389168786019081529094908490829081906020010381885afa908115612bfc575b600091612bdf575b5015612643565b85519081526001600160a01b038716858201908152909283918290819060200103915afa908115612bd2575b600091612bb5575b50156126ad565b600954612a6090610742906001600160a01b031681565b8251631ccdc0d760e21b81526001600160a01b038516838201908152919391612aa991908790829081906020010381885afa908115612ba8575b600091612b8b575b5015612714565b8051635b8de71560e11b81526001600160a01b038516838201908152612aef91908790829081906020010381885afa908115612b7e575b600091612b61575b5015612786565b516370a0823160e01b81526001600160a01b03909316908301908152919384928391829160200190565b03915afa918215612b54575b600092612b37575b5050156127f8565b565b612b4d9250803d106104f2576104e381836105e8565b3880612b2d565b612b5c612299565b612b25565b612b789150873d89116104f2576104e381836105e8565b38612ae8565b612b86612299565b612ae0565b612ba29150873d89116104f2576104e381836105e8565b38612aa2565b612bb0612299565b612a9a565b612bcc9150863d88116104f2576104e381836105e8565b38612a42565b612bda612299565b612a3a565b612bf69150843d86116104f2576104e381836105e8565b38612a07565b612c04612299565b6129ff565b612c209150843d86116104f2576104e381836105e8565b386129af565b612c2e612299565b6129a7565b612c4a9150853d87116104f2576104e381836105e8565b38612970565b612c58612299565b612968565b612c749150843d86116104f2576104e381836105e8565b38612907565b612c82612299565b6128ff565b612c9e9150863d88116104f2576104e381836105e8565b386128c0565b612cac612299565b6128b8565b600654909190612ccb90610742906001600160a01b031681565b6040516309f4173d60e11b8082526001600160a01b038516600483018190526024830152602091828180604481010381600080985af1908115612e60575b8491612e43575b5080612e25575b506007548290612d3190610742906001600160a01b031681565b6040519283526001600160a01b0387166004840181905260248401528290604490829087905af1918215612e18575b8392612dfb575b505080612d75575b50509050565b600854612d8c90610742906001600160a01b031681565b6005546001600160a01b0316813b156108a85783612dc3959660405196879586948593631e42d69b60e21b855280600486016122a6565b03925af18015612dee575b612ddb575b808291612d6f565b8061088f612de8926105ab565b38612dd3565b612df6612299565b612dce565b612e119250803d106104f2576104e381836105e8565b3880612d67565b612e20612299565b612d60565b600454612e3d91906001600160a01b03168780612eb9565b38612d17565b612e5a9150833d85116104f2576104e381836105e8565b38612d10565b612e68612299565b612d09565b15612e7457565b60405162461bcd60e51b815260206004820152601d60248201527f526577617264526f757465723a20696e76616c6964205f616d6f756e740000006044820152606490fd5b919392612ec7811515612e6d565b600654612ede90610742906001600160a01b031681565b92833b1561027b57859383604051809281631e42d69b60e21b9586825281612f108960009e8f988995600486016122a6565b03925af1801561308b575b613078575b50600754612f3890610742906001600160a01b031681565b60065487906001600160a01b0316823b1561307457612f6b928591836040518096819582948a84528c80600486016122a6565b03925af18015613067575b613054575b50600854612f9390610742906001600160a01b031681565b6007549091906001600160a01b031690823b1561305057968361302b9493612ff093837fe39fcefc6058bfdb8506d91c2a3b9bb0cb10699a52ae770cdd986cab2a1845f79a9b6040519687958694859384528c80600486016122a6565b03925af18015613043575b613030575b50604080516001600160a01b0394851681529490931660208501529183019190915281906060820190565b0390a1565b8061088f61303d926105ab565b38613000565b61304b612299565b612ffb565b8780fd5b8061088f613061926105ab565b38612f7b565b61306f612299565b612f76565b5080fd5b8061088f613085926105ab565b38612f20565b613093612299565b612f1b565b6130a3831515612e6d565b6006546130ba90610742906001600160a01b031681565b604080516310c1c10360e01b81526001600160a01b0384166004808301919091529195926020908190839060249082905afa9182156135a6575b600092613587575b5060085461311490610742906001600160a01b031681565b6007549092906001600160a01b0316833b1561027b5760008786958883613154958e519685889694879593869463098bf59d60e01b9e8f87528601612462565b03925af1801561357a575b613567575b5060075461317c90610742906001600160a01b031681565b6006546001600160a01b031690803b1561027b57876000918783886131af8f8d879151998a988997889687528601612462565b03925af1801561355a575b613547575b506006546131d790610742906001600160a01b031681565b803b1561027b5760008789928783886131fe8f8d879151998a988997889687528601612462565b03925af1801561353a575b613527575b5060075461322690610742906001600160a01b031681565b88516309f4173d60e11b81526001600160a01b0388168682018181526020810191909152909184918391908290600090829060400103925af190811561351a575b6000916134fd575b508061347c575b5060085461328e90610742906001600160a01b031681565b6005548951637aeceb1f60e11b81526001600160a01b0389811688830190815292166020830181905294929392918290829081900360400181875afa91821561346f575b600092613452575b505080613331575b505096516001600160a01b03958616815295909416602086015250506040830152507fa17acb4070f401dcd63b49df2dbcc5bc2494f0f54f59a6e243fd89924e2c3e4d9150806060810161302b565b9061334487613349939b9698979b6137bf565b61384d565b94813b1561027b576000918983899361336f858b8a51998a988997889687528601612462565b03925af18015613445575b613432575b5060055461339790610742906001600160a01b031681565b803b1561027b578151632770a7eb60e21b81526001600160a01b03861697810197885260208801949094527fa17acb4070f401dcd63b49df2dbcc5bc2494f0f54f59a6e243fd89924e2c3e4d9661302b949160009183919082908490829060400103925af18015613425575b613412575b81968394826132e2565b8061088f61341f926105ab565b38613408565b61342d612299565b613403565b8061088f61343f926105ab565b3861337f565b61344d612299565b61337a565b6134689250803d106104f2576104e381836105e8565b38806132da565b613477612299565b6132d2565b60085461349390610742906001600160a01b031681565b6005546001600160a01b031691813b1561027b576000918983896134cd8f9584965198899788968795631e42d69b60e21b875286016122a6565b03925af180156134f0575b15613276578061088f6134ea926105ab565b38613276565b6134f8612299565b6134d8565b6135149150833d85116104f2576104e381836105e8565b3861326f565b613522612299565b613267565b8061088f613534926105ab565b3861320e565b613542612299565b613209565b8061088f613554926105ab565b386131bf565b613562612299565b6131ba565b8061088f613574926105ab565b38613164565b613582612299565b61315f565b8161359f9293503d84116104f2576104e381836105e8565b90386130fc565b6135ae612299565b6130f4565b92916135c0811515612e6d565b6006546135d790610742906001600160a01b031681565b6040516310c1c10360e01b81526001600160a01b038616600482015290602090829060249082905afa8015613792575b613774575b5060085461362490610742906001600160a01b031681565b6007549091906001600160a01b0316823b1561027b5785928260405180928163098bf59d60e01b958682528161366460009d8e9788948260048601612462565b03925af18015613767575b613754575b5060075461368c90610742906001600160a01b031681565b60065487906001600160a01b0316823b15613074576136c09285838893604051968795869485938b85528260048601612462565b03925af18015613747575b613734575b506006546136e890610742906001600160a01b031681565b90813b156117a557907fa17acb4070f401dcd63b49df2dbcc5bc2494f0f54f59a6e243fd89924e2c3e4d959661302b93926040519283918252818381612ff08a898d8260048601612462565b8061088f613741926105ab565b386136d0565b61374f612299565b6136cb565b8061088f613761926105ab565b38613674565b61376f612299565b61366f565b61378b9060203d81116104f2576104e381836105e8565b503861360c565b61379a612299565b613607565b81156137a9570490565b634e487b7160e01b600052601260045260246000fd5b9081156138465781600019048111600116613839575b6137e2818302928361379f565b036137ea5790565b60405162461bcd60e51b815260206004820152602160248201527f536166654d6174683a206d756c7469706c69636174696f6e206f766572666c6f6044820152607760f81b6064820152608490fd5b61384161222d565b6137d5565b5050600090565b91906040519261385c846105cc565b601a84527f536166654d6174683a206469766973696f6e206279207a65726f0000000000006020850152811561389757611fd792935061379f565b60405162461bcd60e51b81528061215486600483016120d356fea26469706673582212205712174b4ab9ae2a777c8d547cf7f9729fb377ed1a056ef14363715d339b870564736f6c63430008100033",
  "linkReferences": {},
  "deployedLinkReferences": {}
}